:040000000C94B100AB
:100004000C940E010C9400000C9400000C9400005D
:100014000C9400000C9400000C9400000C9400005C
:100024000C9400000C9400000C94E9000C94000063
:100034000C9400000C9400000C9400000C9400003C
:100044000C9400000C9400000C9400000C9400002C
:100054000C9400000C9400000C9400000C9400001C
:100064000C9400001027E80364000A00010000104B
:100074000001100001005261696E46616C6C3A2007
:10008400536C69676874005261696E46616C6C3ABE
:10009400204D656469756D005261696E46616C6CD2
:1000A4003A20486561767900546865726527732043
:1000B4006E6F207261696E00576173686572696E54
:1000C40067004D6F64653A2068696768004D6F6426
:1000D400653A20736C6F77004D6F64653A20496E02
:1000E4007465727275707400506572696F643A2039
:1000F400002B002B2B002B2B2B004D6F64653A201B
:100104004175746F000080C0110000037A00110073
:1001140011038B00100022039C0010003203AC007A
:100124000A004203BC000B004C03C6000B0057033B
:10013400D10010006203DC0009007203EC0002002D
:100144007B03F50003007D03F70004008003FA003D
:100154000B008403FE0002008F030A010000F894E0
:10016400EE27EFBBF1E0F5BFE5BFF8E1A895A4B732
:10017400A77FA4BFF0936000E09360008DE0A2E04D
:10018400BB27ED938A95E9F780E098E0A0E0B1E021
:10019400ED930197E9F7ECE0F1E0859195910097F3
:1001A40061F0A591B59105901590BF01F0010590FE
:1001B4000D920197E1F7FB01F0CFE0E0EEBBEFEF2A
:1001C400EDBFE8E0EEBFC0E0D3E00C941C020A925D
:1001D4001A92FA926A937A938A939A93AA93BA9305
:1001E400EA93FA93EFB7EA93359B589AEAE0E8BDAD
:1001F400E0EDF7E00E942D03E5E0E8BDE991EFBFF3
:10020400F991E991B991A99199918991799169911A
:10021400F990199009901895EA93FA93EFB7EA9335
:10022400E1E0F0E05E0E6F1EE3E0F0E0E515F605B8
:1002340011F455246624E991EFBFF991E9911895D9
:10024400E881E064E0937C0083E08A95F1F7E09133
:100254007A00E064E0937A00E0917A00E071E1F3DF
:10026400E0917A00E061E0937A00E0917800F09107
:1002740079000C942B03A881B9811B9730F0A881D5
:10028400B981AE35E1E0BE0708F003C0E0E0F3E079
:1002940019C0A881B981AE35E1E0BE0720F0AC3BBE
:1002A400E2E0BE0708F003C0E1E1F3E00BC0A8817F
:1002B400B981AC3BE2E0BE0718F0E2E2F3E002C031
:1002C400E2E3F3E0FA93EA930E94EC020C94C8028E
:1002D4000E943103E2E4F3E00E94360358980E943E
:1002E4003A031CC00E944203359902C0F1DFFCCFDF
:1002F400ECE4F3E00E9436030E943A030FC00E942C
:100304004203359902C0E4DFFCCFE7E5F3E00E9445
:100314003603E2E0E0936F000E944503E093880017
:1003240008950E944203359902C0D2DFFCCFE2E671
:10033400F3E00E9436030E944A03E2E7F3E00E94DE
:100344003603E2E0E0936F00052C062839F4EBE76E
:10035400F3E00E9436030E9445031BC0E1E0F0E095
:10036400E515F60549F4EDE7F3E00E943603E8E904
:10037400E0938900E6E90DC0E2E0F0E0E515F6055A
:1003840051F4E0E8F3E00E943603EDE3E0938900E2
:10039400E9E0E093880008950E944203359902C081
:1003A40097DFFCCFE4E8F3E00E943603E0E0EA9351
:1003B40047DF3E2E4F2E0E944A034A923A925BDF59
:1003C400EAE0F0E0E315F40510F4E2E001C0E0E057
:1003D400E0936F00EAE0F0E0E315F40528F4EEE5BD
:1003E400F1E03E164F0608F003C00E94450319C011
:1003F400EEE5F1E03E164F0628F0ECEBF2E03E1697
:100404004F0608F005C0E8E9E0938900E6E909C071
:10041400ECEBF2E03E164F0630F0EDE3E09389009A
:10042400E9E0E09388000895E0E0E0936F000E9423
:1004340042030895E3E2E4BDEDE0E5BDE4E6E7BD93
:10044400E5E0E8BDE0E0E0938000ECE0E0938100CB
:10045400E0E0E0936F00E1E0E0937E00E0E4E0930D
:100464007C00E1E8E0937A00E2E0E0936900E1E0F7
:10047400EDBBECBB559A509A419A429A439A449ADE
:10048400459A5A9AE0E1EA930E94FB027894A0E02C
:100494003499A1E0A03031F4319B04C0329B02C0F6
:1004A400339901C002C078DF2FC0A0E03199A1E0E8
:1004B400A03031F4329B04C0339B02C0349901C094
:1004C40002C010DF21C0A0E03299A1E0A03031F4D5
:1004D400319B04C0339B02C0349901C002C00FDFBA
:1004E40013C0A0E03399A1E0A03031F4319B04C0E3
:1004F400329B02C0349901C002C013DF05C0359994
:1005040002C0E6DE01C090DFE4EFF1E00E942D03BB
:10051400BECFFFCFE881E07111F02B9A01C02B9878
:10052400E881E07211F02C9A01C02C98E881E07403
:1005340011F02D9A01C02D98E881E07811F02E9ADF
:1005440001C02E9881E08A95F1F72A9A82E08A9573
:10055400F1F72A9882E08A95F1F77BC0E881EA9363
:10056400D9DFE881E295E883E881EA93D3DF81E18A
:100574008A95F1F76EC0E881F0E0E157FC4FE08125
:10058400A981EA0FEA93EADF8980788022960895A8
:10059400E2E00E945003ECE0EA93E0DFE1E00E9435
:1005A4005003E0E07E2E8E2E0895A881AA3011F02B
:1005B4008A1448F0E0E0EA9373947A92DCDFA8812D
:1005C400AA3009F446C08394289AE881EA93C6DFE6
:1005D40028983FC01A93A981BA81ED91A983BA835F
:1005E4001E2FE03019F01A93E0DFF5CF188123961F
:1005F4000895239A249A259A269A229A209A219A2F
:100604002A9828982998A880E881E058E0939103D3
:10061400E881E054E0939203E4E1F0E00E942D03CA
:100624000E9456030E9456030E945603E0E2EA9396
:1006340071DF81E28A95F1F7E8E2EA938FDFE4E083
:10064400EA938CDFE5E8EA9389DFE6E0EA9386DF64
:100654009FDF21960895FA93EA930C945E03E0E0F9
:10066400EA93EA930C94BD02FA93EA930C94EC0295
:10067400E2E0E0936F00EDE3E0938900E9E00895A0
:100684000E94CA02ECCFE4EFE0938900EBE1089505
:10069400E0E0EA93E1E0EA930C94BD02EA930E945D
:1006A400B002E3E0F0E0D7CFE0E3EA930E948C02EB
:1006B40081E28A95F1F70895E991F991309639F03C
:1006C4008AEF90E00197F1F7A8953197C9F708955B
:00000001FF
