:060000000C94B1000C9409
:100006000E010C9422010C9400000C9400000C9438
:1000160000000C9400000C9400000C9400000C945A
:1000260000000C9400000C94E9000C9400000C9461
:1000360000000C9400000C9400000C9400000C943A
:1000460000000C9400000C9400000C9400000C942A
:1000560000000C9400000C9400000C9400000C941A
:1000660000001027E80364000A00010000100001E8
:10007600100001005261696E46616C6C3A20536C47
:1000860069676874005261696E46616C6C3A204D0E
:10009600656469756D005261696E46616C6C3A20E3
:1000A60048656176790054686572652773206E6FBE
:1000B600207261696E00576173686572696E6700C8
:1000C6004D6F64653A2068696768004D6F64653AEC
:1000D60020736C6F77004D6F64653A20496E7465C6
:1000E600727275707400506572696F643A20002BE5
:1000F600002B2B002B2B2B004D6F64653A2041758E
:10010600746F000080C0110000037A001100110313
:100116008B00100022039C0010003203AC000A0082
:100126004203BC000B004C03C6000B005703D10072
:1001360010006203DC0009007203EC0002007B037E
:10014600F50003007D03F70004008003FA000B00AE
:100156008403FE0002008F030A010000F894EE27D4
:10016600EFBBF1E0F5BFE5BFF8E1A895A4B7A77F1F
:10017600A4BFF0936000E09360008DE0A2E0BB278F
:10018600ED938A95E9F780E098E0A0E0B1E0ED9381
:100196000197E9F7ECE0F1E085919591009761F020
:1001A600A591B59105901590BF01F00105900D92AE
:1001B6000197E1F7FB01F0CFE0E0EEBBEFEFEDBF1B
:1001C600E8E0EEBFC0E0D3E00C9419020A921A925E
:1001D600FA926A937A938A939A93AA93BA93EA9332
:1001E600FA93EFB7EA93359B589AEAE0E8BDE0ED5B
:1001F600F7E00E942A03E5E0E8BDE991EFBFF99137
:10020600E991B991A9919991899179916991F99019
:10021600199009901895EA93FA93EFB7EA93E1E0FB
:10022600F0E05E0E6F1EE3E0F0E0E515F60511F472
:1002360055246624E991EFBFF991E991189518952F
:10024600E881E064E0937C0083E08A95F1F7E09131
:100256007A00E064E0937A00E0917A00E071E1F3DD
:10026600E0917A00E061E0937A00E0917800F09105
:1002760079000C942803A881B9810E94670320F4B1
:10028600AE35E1E0BE0708F003C0E0E0F3E019C0D8
:10029600A881B981AE35E1E0BE0720F0AC3BE2E0D3
:1002A600BE0708F003C0E1E1F3E00BC0A881B98105
:1002B600AC3BE2E0BE0718F0E2E2F3E002C0E2E3A4
:1002C600F3E0FA93EA930E94E9020C94C5020E94B5
:1002D6002E03E2E4F3E00E94330358980E943703AA
:1002E6001CC00E943F03359902C0F1DFFCCFECE44D
:1002F600F3E00E9433030E9437030FC00E943F03BE
:10030600359902C0E4DFFCCFE7E5F3E00E94330352
:10031600E2E0E0936F000E944203E09388000895B4
:100326000E943F03359902C0D2DFFCCFE2E6F3E03C
:100336000E9433030E944703E2E7F3E00E9433037F
:10034600E2E0E0936F00052C062839F4EBE7F3E0D2
:100356000E9433030E9442031BC0E1E0F0E0E51572
:10036600F60549F4EDE7F3E00E943303E8E9E0938C
:100376008900E6E90DC0E2E0F0E0E515F60551F486
:10038600E0E8F3E00E943303EDE3E0938900E9E05F
:10039600E093880008950E943F03359902C097DFD5
:1003A600FCCFE4E8F3E00E943303E0E0EA9348DFA1
:1003B6003E2E4F2E0E9447034A923A925CDF032C50
:1003C600042811F0E2E001C0E0E0E0936F000024B1
:1003D6000314040428F4EEE5F1E03E164F0608F097
:1003E60003C00E94420319C0EEE5F1E03E164F0637
:1003F60028F0ECEBF2E03E164F0608F005C0E8E9FF
:10040600E0938900E6E909C0ECEBF2E03E164F0600
:1004160030F0EDE3E0938900E9E0E0938800089589
:10042600E0E0E0936F000E943F030895E3E2E4BD3D
:10043600EDE0E5BDE4E6E7BDE5E0E8BDE0E0E0933C
:100446008000ECE0E0938100E0E0E0936F00E1E003
:10045600E0937E00E0E4E0937C00E1E8E0937A003C
:10046600E2E0E0936900E1E0EDBBECBB559A509AFF
:10047600419A429A439A449A459A5A9AE0E1EA93F3
:100486000E94F8027894A0E03499A1E0A03031F4FB
:10049600319B04C0329B02C0339901C002C07BDF8E
:1004A6002FC0A0E03199A1E0A03031F4329B04C006
:1004B600339B02C0349901C002C013DF21C0A0E003
:1004C6003299A1E0A03031F4319B04C0339B02C0C5
:1004D600349901C002C012DF13C0A0E03399A1E035
:1004E600A03031F4319B04C0329B02C0349901C064
:1004F60002C016DF05C0359902C0E9DE01C090DFF3
:10050600E4EFF1E00E942A03BECFFFCFE881E0715D
:1005160011F02B9A01C02B98E881E07211F02C9A09
:1005260001C02C98E881E07411F02D9A01C02D9835
:10053600E881E07811F02E9A01C02E9881E08A9524
:10054600F1F72A9A82E08A95F1F72A9882E08A954D
:10055600F1F77BC0E881EA93D9DFE881E295E88389
:10056600E881EA93D3DF81E18A95F1F76EC0E881ED
:10057600F0E0E157FC4FE081A981EA0FEA93EADF58
:100586008980788022960895E2E00E944D03ECE08F
:10059600EA93E0DFE1E00E944D03E0E07E2E8E2E3E
:1005A6000895A881AA3011F08A1448F0E0E0EA9391
:1005B60073947A92DCDFA881AA3009F446C083944A
:1005C600289AE881EA93C6DF28983FC01A93A98142
:1005D600BA81ED91A983BA831E2FE03019F01A93E0
:1005E600E0DFF5CF188123960895239A249A259A59
:1005F600269A229A209A219A2A9828982998A88099
:10060600E881E058E0939103E881E054E093920397
:10061600E4E1F0E00E942A030E9453030E94530380
:100626000E945303E0E2EA9371DF81E28A95F1F7D3
:10063600E8E2EA938FDFE4E0EA938CDFE5E8EA9309
:1006460089DFE6E0EA9386DF9FDF21960895FA9335
:10065600EA930C945B03E0E0EA93EA930C94BA0203
:10066600FA93EA930C94E902E2E0E0936F00EDE37B
:10067600E0938900E9E008950E94C702ECCFE4EF19
:10068600E0938900EBE10895E0E0EA93E1E0EA9384
:100696000C94BA02EA930E94AD02E3E0F0E0D7CFF1
:1006A600E0E3EA930E94890281E28A95F1F70895D0
:1006B600E991F991309639F08AEF90E00197F1F7D8
:1006C600A8953197C9F7089500240A160B060895D0
:00000001FF
